:020000040000FA
:0400000091EF0FF07D
:10080000000000004B4241434B5741524400464FC9
:100810005257415244005249474854004C454654AF
:100820000035000095C06AF096C06BF097C06CF080
:1008300098C06DF055C06AF056C06BF057C06CF0B0
:1008400058C06DF06AC059F06BC05AF06CC05BF0D4
:100850006DC05CF0180E05D0D8905C325B325A3215
:100860005932E82EF9D759500001646F656B65BFA6
:100870000FD0655104E1960E645DD8A009D055C033
:1008800055F056C056F057C057F058C058F01200F7
:100890006AC059F06BC05AF06CC05BF06DC05CF080
:1008A000200E05D0D8905C325B325A325932E82E95
:1008B000F9D759505A105B105C10D8B412D055C0FB
:1008C00001F056C002F057C003F058C004F052ECDB
:1008D0000FF001C055F002C056F003C057F004C03D
:1008E00058F0000165BF06D065511FE17E0E645DC2
:1008F000D8B01BD06AC00FF06BC010F06CC011F004
:100900006DC012F0000E136E000E146E000E156E08
:10091000000E166ED1EC05F00FC055F010C056F069
:1009200011C057F012C058F01200010EF66E090007
:10093000F5CF45F00900F5CF46F00900F5CF47F0B7
:100940000A00F5CF48F055C041F056C042F057C0FC
:1009500043F058C044F079EC07F041C066F042C063
:1009600067F043C068F044C069F0010EF66E0900FC
:10097000F5CF01F00900F5CF02F00900F5CF03F043
:100980000A00F5CF04F052EC0FF001C045F002C0B0
:1009900046F003C047F004C048F066C041F067C0AD
:1009A00042F068C043F069C044F079EC07F041C000
:1009B00060F042C061F043C062F044C063F060C0C8
:1009C00041F061C042F062C043F063C044F055C0E2
:1009D00001F056C002F057C003F058C004F052ECCA
:1009E0000FF001C045F002C046F003C047F004C05C
:1009F00048F079EC07F041C06EF042C06FF043C0A0
:100A000070F044C071F0000E016E000E026E000E18
:100A1000036E3F0E046E6EC005F06FC006F070C02E
:100A200007F071C008F06FEC0DF0D8B02DD055C0B4
:100A300045F056C046F057C047F058C048F06EC069
:100A400041F06FC042F070C043F071C044F079ECE7
:100A500007F041C066F042C067F043C068F044C090
:100A600069F066C041F067C042F068C043F069C0F9
:100A700044F0000E456E000E466E800E476EBF0EAF
:100A8000486E79EC07F053D0000E016E000E026E36
:100A9000000E036EBF0E046E6EC005F06FC006F050
:100AA00070C007F071C008F06FEC0DF0D8A02DD029
:100AB00055C045F056C046F057C047F058C048F002
:100AC0006EC041F06FC042F070C043F071C044F09E
:100AD00079EC07F041C066F042C067F043C068F0AF
:100AE00044C069F066C041F067C042F068C043F09E
:100AF00069C044F0000E456E000E466E800E476ED3
:100B00003F0E486E79EC07F012D06EC041F06FC016
:100B100042F070C043F071C044F055C045F056C07B
:100B200046F057C047F058C048F079EC07F041C094
:100B30006EF042C06FF043C070F044C071F06AC004
:100B400059F06BC05AF06CC05BF06DC05CF0200EC9
:100B500005D0D8905C325B325A325932E82EF9D740
:100B600059505A105B105C10D8B412D06EC001F00E
:100B70006FC002F070C003F071C004F052EC0FF0CF
:100B800001C06EF002C06FF003C070F004C071F0DD
:100B90006EC055F06FC056F070C057F071C058F07D
:100BA00012001250800B1B6E12501224216E11BEC7
:100BB00021802150D8B40DD02128D8A408D0000E0F
:100BC0000F6E000E106E000E116E000E126E118E62
:100BD00008D0000E0F6E000E106E000E116E000E8B
:100BE000126E1650800B1B1A16501624206E15BE5E
:100BF00020802050D8B40DD02028D8A408D0000ED2
:100C0000136E000E146E000E156E000E166E158E0D
:100C100008D0000E136E000E146E000E156E000E3E
:100C2000166E2050D8B403D02150D8A409D0000E9D
:100C30000F6E000E106E000E116E000E126E12007E
:100C400015500F02F3CF26F0F4CF27F026501C6E7C
:100C50001D6A1E6A1F6A2750226E236A246A256A4B
:100C600014501002F3CF26F0F4CF27F026501C26A4
:100C7000000E1D221E221F2227502226000E232294
:100C80002422252213501102F3CF26F0F4CF27F0AF
:100C900026501C26000E1D221E221F22275022260F
:100CA000000E2322242225221EC01FF01DC01EF08C
:100CB0001CC01DF01C6A13501002F3CF26F0F4CFB5
:100CC00027F026501C2627501D22000E1E22000E43
:100CD0001F2214500F02F3CF26F0F4CF27F0265036
:100CE0001C2627501D22000E1E22000E1F221EC091
:100CF0001FF01DC01EF01CC01DF01C6A13500F0217
:100D0000F3CF26F0F4CF27F026501C2627501D22C3
:100D1000000E1E22000E1F2215501002F3CF26F0E7
:100D2000F4CF27F02650222627502322000E24221B
:100D3000000E252214501102F3CF26F0F4CF27F035
:100D40002650222627502322000E2422000E252280
:100D500015501102F3CF26F0F4CF27F02650176E6E
:100D60002750186E196A1A6A19C01AF018C019F0BB
:100D700017C018F0176A175022261850232219504E
:100D800024221A5025221CC017F01DC018F01EC0C6
:100D900019F01FC01AF0190E05D0D8901A32193266
:100DA00018321732E82EF9D717502226185023226E
:100DB000195024221A5025221EC01FF01DC01EF0FB
:100DC0001CC01DF01C6A205021C017F0186A17269D
:100DD000000E1822820E1724266EFF0E1820276E92
:100DE0000FD0D89022362336243625361FBE2280D7
:100DF000D8901C361D361E361F362606D8A027066C
:100E000024AEEFD7000E206E1FAE16D0FF0E1C14BE
:100E1000176EFF0E1D14186EFF0E1E14196E7F0E36
:100E20001F141A6E1750181019101A10D8A402D0D7
:100E300022A002D0010E206E2050D8B41FD0010E87
:100E40002226000E23222422252225A017D022C0EC
:100E500017F023C018F024C019F025C01AF01A3476
:100E60001A3219321832173217C022F018C023F084
:100E700019C024F01AC025F0264A272A27BE0DD013
:100E8000275003E12628D8A008D0000E226E000EBD
:100E9000236E800E246E7F0E20D027BE05D02750F3
:100EA0000EE12604D8B00BD0000E226E000E236E89
:100EB000000E246E000E256E000E1B6E0FD026C095
:100EC00021F0FF0E2216FF0E23167F0E2416000EB1
:100ED000251621B0248ED8902130256E1B50251266
:100EE00022C00FF023C010F024C011F025C012F072
:100EF00012004450800B516E44504424536E43BE44
:100F000053805350D8B40DD05328D8A408D0000E25
:100F1000416E000E426E000E436E000E446E438E14
:100F200006D0000E416E000E426E000E436E000EA3
:100F3000446E4850800B526E51505218D8A4518CB8
:100F400048504824526E47BE52805250D8B40DD0FB
:100F50005228D8A408D0000E456E000E466E000E32
:100F6000476E000E486E478E06D0000E456E000E8E
:100F7000466E000E476E000E486E5350525CD8B05D
:100F800022D051AC02D0800E511A53C054F052C03E
:100F900053F054C052F041C054F045C041F054C029
:100FA00045F042C054F046C042F054C046F043C041
:100FB00054F047C043F054C047F044C054F048C018
:100FC00044F054C048F0000E546E5350496E4A6AC3
:100FD000491E4A1E494A4A2A52504B6E4C6A495091
:100FE0004B264A504C224CBE2CD04C5004E11A0ED9
:100FF0004B5CD8A026D04150421043104410D8B4C6
:1010000002D0010E01D0000E546E000E416E000E93
:10101000426E000E436E000E446E52C053F015D067
:1010200054A005D0D89054300109546E02D0D89005
:10103000543241B0548E443444324332423241320D
:10104000532A5250535CD8A0EBD751BC28D05350F0
:10105000D8A409D0000E416E000E426E000E436E01
:10106000000E446E12004550412646504222475021
:1010700043224850442244A082D054A005D0D890A6
:1010800054300109546E02D0D890543241B0548E7D
:1010900044344432433242324132532A70D04550B4
:1010A000415C46504258475043584450800A496E6C
:1010B0004850800A4958D8B036D041C049F042C0A3
:1010C0004AF043C04BF044C04CF0491E4A1E4B1E30
:1010D0004C1E492A000E4A224B224C2245504924DC
:1010E0004D6E46504A204E6E47504B204F6E485032
:1010F0004C20506EFF0E4D24416EFF0E4E20426E6E
:10110000FF0E4F20436EFF0E5020446E800E511A8A
:10111000546C5450D8A40FD0010E4126000E422228
:101120004322442208D04550415E4650425A47501F
:10113000435A4850445A4150421043104410D8A4D6
:101140001CD05450D8A419D0000E416E000E426E2F
:10115000000E436E000E446E1200D89041364236A7
:101160004336443654BE418054A002D0D88001D0CA
:10117000D89054365350D8A4530643AEEED7000E41
:10118000526E54AE0AD054C049F07F0E4916D8A40E
:1011900002D041A002D0010E526E5250D8B420D0DD
:1011A000010E4126000E42224322442244A018D0C0
:1011B00041C049F042C04AF043C04BF044C04CF03B
:1011C0004C344C324B324A32493249C041F04AC069
:1011D00042F04BC043F04CC044F05328D8A4532AEB
:1011E0005328D8B403D05350D8A40DD0000E416E6C
:1011F000000E426E000E436E000E446E5350D8A493
:1012000002D0000E516E53A002D0438E01D0439EF7
:10121000D8905330446E51BE448E41C041F042C01C
:1012200042F043C043F044C044F01200E80E000115
:10123000886F010E896F000E8A6F000E8B6F7551DB
:1012400074110EE1400E725D1F0E7359D8B008D0B4
:10125000000E7B6F020E7A6F000E7D6F100E07D0AE
:10126000000E7B6F000E7A6F000E7D6F010E7C6F9B
:101270007251885D7351895974518A5975518B59CE
:10128000D8B00AD0000E836F070E826F000E7E6FFB
:10129000120E7F6F7A0E9FD0D8908B338A338933AA
:1012A00088337251885D7351895974518A597551C7
:1012B0008B59D8B00AD0000E836F060E826F000ED5
:1012C0007E6F090E7F6F3D0E86D0D8908B338A33A8
:1012D000893388337251885D7351895974518A59A1
:1012E00075518B59D8B00AD0000E836F050E826FEE
:1012F000800E7E6F840E7F6F1E0E6DD0D8908B3364
:101300008A33893388337251885D73518959745196
:101310008A5975518B59D8B00AD0000E836F040ECC
:10132000826F400E7E6F420E7F6F0F0E54D0D890AA
:101330008B338A33893388337251885D735189596D
:1013400074518A5975518B59D8B00AD0000E836FE9
:10135000030E826F200E7E6FA10E7F6F070E3BD0B3
:10136000D8908B338A33893388337251885D7351B7
:10137000895974518A5975518B59D8B00AD0000EC9
:10138000836F020E826F900E7E6FD00E7F6F030E02
:1013900022D0D8908B338A33893388337251885D59
:1013A0007351895974518A5975518B59D8B00AD0E3
:1013B000000E836F010E826F480E7E6FE80E7F6F06
:1013C000010E09D0000E836F000E826F180E7E6F23
:1013D000790E7F6F000E806F000E816F000E136E0E
:1013E000000E146E800E156E400E166E7CC001F05D
:1013F0007DC002F0000E02BEFF0E036E046E010EF1
:10140000CFEC0CF001C00FF002C010F003C011F0DF
:1014100004C012F0D1EC05F00FC076F010C077F0E8
:1014200011C078F012C079F072C001F073C002F000
:1014300074C003F075C004F0000ECFEC0CF001C0D6
:1014400013F002C014F003C015F004C016F076C00B
:101450000FF077C010F078C011F079C012F0D1EC25
:1014600005F00FC02CF010C02DF011C02EF012C0EE
:101470002FF07EC001F07FC002F080C003F081C079
:1014800004F0000ECFEC0CF001C028F002C029F0EF
:1014900003C02AF004C02BF0A2EC0AF028C041F0EF
:1014A00029C042F02AC043F02BC044F0000E456E24
:1014B000000E466E800E476EBF0E486E79EC07F048
:1014C00041C084F042C085F043C086F044C087F03C
:1014D00084C055F085C056F086C057F087C058F0DC
:1014E00012EC04F055C084F056C085F057C086F069
:1014F00058C087F082C05FF0070E5F165F38F00BB0
:101500000209D36E84C055F085C056F086C057F0EE
:1015100087C058F07FEC0EF05550CB6E7AC0CAFFF2
:10152000000ECC6ECA8484C055F085C056F086C0CB
:1015300057F087C058F07FEC0EF055C072F056C0DF
:1015400073F012002B50800B386E2B502B243F6E03
:101550002ABE3F803F50D8B40DD03F28D8A408D031
:10156000000E286E000E296E000E2A6E000E2B6EE5
:101570002A8E06D0000E286E000E296E000E2A6EEE
:10158000000E2B6E2F50800B381A2F502F24406ED8
:101590002EBE40804050D8B40DD04028D8A408D0EA
:1015A000000E2C6E000E2D6E000E2E6E000E2F6E95
:1015B0002E8E06D0000E2C6E000E2D6E000E2E6E9E
:1015C000000E2F6E2C502D102E102F10D8A417D0D7
:1015D000000E286E000E296E000E2A6E000E2B6E75
:1015E000800E2A127F0E2B1238502B1228C028F0A2
:1015F00029C029F02AC02AF02BC02BF012003F503E
:10160000D8A411D0000E286E000E296E000E2A6E8E
:10161000000E2B6E28C028F029C029F02AC02AF01D
:101620002BC02BF012004050306E316A301E311E3C
:10163000304A312A3F50326E336A305032263150B0
:1016400033227F0E3224396E000E33203A6E28C0CA
:1016500034F029C035F02AC036F02BC037F0000E28
:10166000286E000E296E000E2A6E000E2B6E000EE4
:101670003B6E000E3C6E000E3D6E000E3E6E000E88
:10168000406E28D04050D8B411D0D890343635367A
:1016900036363736D890283629362A362B363EBE8F
:1016A0002880D8903B363C363D363E362C50345C54
:1016B0002D5035582E5036582F503758D8A009D0B5
:1016C0003E8C2C50345E2D50355A2E50365A2F50A9
:1016D000375A402A190E4064D5D734503510361089
:1016E0003710D8B411D03B800FD0D8902836293687
:1016F0002A362B363EBE2880D8903B363C363D36C7
:101700003E363906D8A03A062AAEEFD7000E406E14
:101710003EAE16D0FF0E3B14306EFF0E3C14316E01
:10172000FF0E3D14326E7F0E3E14336E305031107A
:1017300032103310D8A402D028A002D0010E406E7F
:101740004050D8B41FD0010E2826000E29222A228C
:101750002B222BA017D028C030F029C031F02AC08E
:1017600032F02BC033F03334333232323132303254
:1017700030C028F031C029F032C02AF033C02BF03D
:10178000394A3A2A3ABE10D03A5003E13928D8A053
:101790000BD0000E3A6E3968000E286E000E296ECE
:1017A000000E2A6E000E2B6E3ABE05D03A5011E1A3
:1017B0003904D8B00ED0000E3A6E000E396E000E0D
:1017C000286E000E296E000E2A6E000E2B6E000E83
:1017D000386E39C03FF03FA002D02A8E01D02A9E39
:1017E000D8903F302B6E38502B1228C028F029C0DB
:1017F00029F02AC02AF02BC02BF01200720ED36EF3
:10180000000E936E000E956E8C9A8C8CA7EC0FF0E8
:10181000100E0001726F270E736F000E746F000EB2
:10182000756F16EC09F072C08EF073C08FF0800EE9
:101830000001606F250E616F000E626F000E636F16
:10184000EDEC0EF0A3EC0FF00001946F8CC08AFF5A
:1018500094C001F0026A000E046E050E036E7EEC69
:101860000FF00009D8B418D0D30E0001906FD20E3B
:10187000916FB70E926F450E936F90C060F091C05C
:1018800061F092C062F093C063F08EC064F08FC0CC
:1018900065F0FFEC0DF017D0140E0001906F140EE0
:1018A000916F440E926F450E936F90C060F091C09F
:1018B00061F092C062F093C063F08EC064F08FC09C
:1018C00065F0FFEC0DF0310E00019419D8B404D08E
:1018D000410E9419D8A40BD08C908C828C948C8659
:1018E0000E0E026E080E036E69EC0FF051D0320E30
:1018F00000019419D8B404D0420E9419D8A40BD086
:101900008C808C928C848C96050E026E080E036E71
:1019100069EC0FF03DD0330E00019419D8B404D017
:10192000430E9419D8A40BD08C908C828C848C9606
:101930001C0E026E080E036E69EC0FF029D0340EF7
:1019400000019419D8B404D0440E9419D8A40BD033
:101950008C808C928C948C86160E026E080E036E10
:1019600069EC0FF015D0370E00019419D8A409D0F6
:101970008C9C8C8A210E026E080E036E69EC0FF0AF
:1019800007D0380E00019419D8A402D08C8C8C9A00
:10199000000E026E640E016E37EC0FF053D7096E25
:1019A0000950D8A404AE1AD001C005F002C006F058
:1019B00003C007F004C008F0051E061E071E081E1F
:1019C000052A000E06220722082205C00BF006C0D9
:1019D0000CF007C00DF008C00EF008D001C00BF0ED
:1019E00002C00CF003C00DF004C00EF00150021054
:1019F00003100410D8A409D0000E016E000E026E70
:101A0000000E036E000E046E1200960E0A6E06D0D3
:101A10000A2AD8900E320D320C320B32000E0B1403
:101A2000056E000E0C14066E000E0D14076EFE0EF1
:101A30000E14086E0550061007100810D8B40DD00B
:101A4000E7D70A2A010E0B26000E0C220D220E22C9
:101A5000D8900E320D320C320B32000E0B14056E84
:101A6000000E0C14066E000E0D14076EFF0E0E1401
:101A7000086E0550061007100810D8B407D0E1D73B
:101A80000A06D8900B360C360D360E360DBE03D036
:101A9000020E0A60F5D70AA00D9ED8900A320AC03D
:101AA00005F0066A076A086A05C008F0076A066A50
:101AB000056A05500B1206500C1207500D12085003
:101AC0000E120950D8A404AE01D00E8E0BC001F046
:101AD0000CC002F00DC003F00EC004F01200000EA6
:101AE0000114096E000E02140A6E800E03140B6EB0
:101AF0007F0E04140C6E09500A100B100C10D8A4A1
:101B000008D0000E016E000E026E000E036E000E75
:101B1000046E000E0514096E000E06140A6E800E87
:101B200007140B6E7F0E08140C6E09500A100B1070
:101B30000C10D8A408D0000E056E000E066E000E24
:101B4000076E000E086E04AE1DD001C009F002C081
:101B50000AF003C00BF004C00CF0091E0A1E0B1E95
:101B60000C1E092A000E0A220B220C22000E092448
:101B7000016E000E0A20026E000E0B20036E800E16
:101B80000C20046E08AE1DD005C009F006C00AF096
:101B900007C00BF008C00CF0091E0A1E0B1E0C1E1D
:101BA000092A000E0A220B220C22000E0924056EBF
:101BB000000E0A20066E000E0B20076E800E0C2011
:101BC000086E000E011A000E021A000E031A800E93
:101BD000041A000E051A000E061A000E071A800ECF
:101BE000081A0550015C0650025807500358085067
:101BF0000458D8B002D0D8901200D8801200000E3D
:101C0000136E000E146E800E156E400E166E000ED2
:101C1000456E000E466E800E476E3F0E486E64C0E5
:101C200001F065C002F0000E02BEFF0E036E046EEE
:101C3000010ECFEC0CF001C041F002C042F003C035
:101C400043F004C044F079EC07F041C00FF042C00B
:101C500010F043C011F044C012F0D1EC05F00FC0F9
:101C600068F010C069F011C06AF012C06BF0000E8D
:101C70002C6E000E2D6EC80E2E6E420E2F6E60C0A2
:101C800028F061C029F062C02AF063C02BF0A2ECFA
:101C90000AF028C013F029C014F02AC015F02BC098
:101CA00016F068C00FF069C010F06AC011F06BC088
:101CB00012F0D1EC05F00FC055F010C056F011C075
:101CC00057F012C058F07FEC0EF055C06CF056C0C3
:101CD0006DF06CC066F06DC067F00001673567336A
:101CE00066336735673366336651BB6E6CC066F02A
:101CF000030E66176639F00B0C09BA6E12005734E2
:101D000058345E6E5E50D8A409D0000E556E000E99
:101D1000566E000E576E000E586E120055C059F0E8
:101D200056C05AF057C05BF058C05CF0200E05D08A
:101D3000D8905C325B325A325932E82EF9D759507A
:101D40005D6E578EFF0E5516FF0E5616FF0E571678
:101D5000000E5816960E5E5E5EAE16D05E50800A7D
:101D6000970FD8B009D0000E556E000E566E000EBB
:101D7000576E000E586E1200D890583257325632B5
:101D800055325E3EF9D715D01F0E5E640FD0000E9F
:101D9000556E000E566E000E576E000E586E1200F5
:101DA000D89055365636573658365E065E50D8A40B
:101DB000F7D75D50D8B408D0581E571E561E556C24
:101DC000000E56225722582255C055F056C056F0E4
:101DD00057C057F058C058F01200949C948E60C0C1
:101DE00001F061C002F062C003F063C004F0010EB4
:101DF000CFEC0CF001C02CF002C02DF003C02EF08F
:101E000004C02FF0000E286E240E296EF40E2A6EE8
:101E1000470E2B6EA2EC0AF028C041F029C042F018
:101E20002AC043F02BC044F0000E456E000E466EF3
:101E3000800E476EBF0E486E79EC07F041C064F02B
:101E400042C065F043C066F044C067F064C055F01E
:101E500065C056F066C057F067C058F07FEC0EF0D2
:101E60005550AF6E200EAC6E900EAB6E1200000E91
:101E7000046E000E036E0FD0000E066E000E056E8F
:101E8000065007E1510E055CD8B003D0054A062A7A
:101E9000F7D7034A042A0350015C04500258D8A023
:101EA0001200EAD70150021003100410D8B408D071
:101EB000000E011A000E021A000E031A800E041AF8
:101EC00001C001F002C002F003C003F004C004F03E
:101ED00012000AD002C0F6FF03C0F7FF0800F55059
:101EE0009DEC0FF0024A032A02C0F6FF03C0F7FF81
:101EF0000800F5500009D8B41200ECD703C005F073
:101F000001C006F002C007F0052A03D007340732EB
:101F10000632052EFBD706A002D0010E1200000EDD
:101F200012000001986B976B966B956B000EF86E24
:101F3000080EF76E0001FEEF0BF0016E9EA8FED7B3
:101F400001C0ADFF12009EAAFED7AE5012009492BF
:061F50000C0EBA6E120037
:020000040020DA
:08000000FFFFFFFFFFFFFFFF00
:020000040030CA
:0E00000000091F1EFF0181FF0FC00FE00F401F
:00000001FF
